:020000040000fa
:080000000002040000000000f2
:020000040000fa
:100008009a0200009a0200009a0200009a02000078
:100018009a0200009a0200009a0200009a02000068
:100028009a0200009a0200009a0200009a02000058
:100038009a0200009a0200009a0200009a02000048
:020000040000fa
:020000040000fa
:100400000f8020000eff20000e0188000000000079
:10041000000020000000e000020032000001200087
:10042000200288000c000700004520000100200089
:1004300011000700000020000000e0000200320070
:100440000000020000000000120402000000000092
:100450000040da000000fe004440a9000000200037
:100460000000e0000300320000002000a00188002e
:100470004440a80000000600910188008000780038
:100480000000eb0015003700e280400032a0b4000d
:100490009101ba00e280400032a0b4009102ba009b
:1004a000e280400032a0b4000002eb00472bde00e7
:1004b000f507b200602ce10004003a000059eb009f
:1004c0008301e900fdff3e00040037006128e100e0
:1004d000010032000082eb00040007001101ba00a5
:1004e0000200e000e8ff3a00000006003159ba00bf
:1004f0008301e9000c0032002159ba008301e900b0
:10050000080032000400e00003003a00e2804000ee
:1005100032a0b400f5ff370011d9ba008301e90019
:10052000faff3a008100e800e180400032a0b40008
:0c053000000006000040da000000fe00a1
:020000040000fa
:10053c000400fa000000eb00000f78000b003700fd
:10054c000000eb0010079800030037001e0090001d
:10055c000000e800100798009e009000e00f2000bb
:10056c00808f5000f9ff34001e0fe800301f200070
:10057c009e007800808f5000f1ff34000080fa005c
:10058c00000006000000fa00c9e2a900cbe2a900b5
:10059c00e7ff0700cbe2a8000080fa00000006008d
:1005ac000000fa004427ef000001200040118800f1
:1005bc00808028000011880000512800101188004c
:1005cc0000202a0020088800f0572200100888001c
:1005dc008460a9000080fa00000006000000fa0008
:1005ec004427ef007006200040118800008028008e
:1005fc0000118800005128001011880000202a00ea
:10060c0020088800f0572200100888008460a90098
:10061c000080fa00000006000000fa0010c4b300cd
:10062c006500070040c5b30063000700b0c2b3000b
:10063c00610007000080fa00000006000000fa00cc
:10064c0040c5b3005c00070050c4b3005a0007005b
:10065c0030c5b3005800070040c5b3005600070072
:10066c000080fa00000006000000fa00eaff070014
:10067c0020c4b3005000070010c4b3004e000700a4
:10068c0050c5b3004c00070040c4b3004a0007003b
:10069c00f0c3b300480007000080fa000000060019
:1006ac000200fa00004f7800dbff070020c4b30003
:1006bc004100070010c4b3003f00070050c5b30051
:1006cc003d00070040c4b3003b00070080c3b300eb
:1006dc00390007000080fa00000006000000fa0054
:1006ec00cdff070060c4b3003300070090c4b30013
:1006fc0031000700c0c4b3002f00070040c5b30091
:10070c002d000700f0c3b3002b0007000080fa0097
:10071c00000006000000fa00bfff070010c4b30081
:10072c002500070040c4b3002300070040c5b300f8
:10073c002100070090c5b3001f000700f0c3b300f1
:10074c001d0007000080fa00000006000000fa00ff
:10075c00b1ff070030c5b30017000700c0c4b300d9
:10076c001500070050c4b3001300070050c4b300b9
:10077c001100070000c5b3000f0007000080fa004d
:10078c00000006000200fa000000eb00000f7800e9
:10079c000300370030c4b300070007001e0fe80049
:1007ac00200520009e007800808f5000f9ff340057
:1007bc000080fa00000006000200fa00004f7800ea
:1007cc00000000001111800000202000008060005b
:1007dc000000e000fbff3a001e00fb002011880027
:1007ec000080fa00000006000200fa00004f7800ba
:1007fc00000000001111800000202000008060002b
:10080c000000e000fbff3a001e80fb002011880076
:10081c000080fa00000006000000fa0000a026008c
:10082c00810120000d0007005dff070000a02600dd
:10083c008101200009000700d2ff070000a026005c
:10084c008101200005000700a4ff070000a026007e
:0c085c008101200001000700fbff3700b5
:020000040000fa
:10086800f03fb1000180b10006003500ee03090039
:1008780000000000403fb1000180b100fbff3d00d7
:100888001000b000203fb0000200350000800900d1
:08089800000000000000060052
:020000040000fa
:0408a0000000000054
:020000040000fa
:0200000401f009
:04000000ffff0000fe
:020000040000fa
:0200000401f009
:04000800ffff0000f6
:020000040000fa
:0200000401f009
:04000c0059ff000098
:020000040000fa
:0200000401f009
:04001000bfff00002e
:020000040000fa
:0200000401f009
:0400140050ff000099
:020000040000fa
:0200000401f009
:04001800f7ff0000ee
:020000040000fa
:0200000401f009
:04001c00feff0000e3
:00000001FF
