:020000040000fa
:080000000002040000000000f2
:020000040000fa
:100008009a0200009a0200009a0200009a02000078
:100018009a0200009a0200009a0200009a02000068
:100028009a0200009a0200009a0200009a02000058
:100038009a0200009a0200009a0200009a02000048
:020000040000fa
:020000040000fa
:100400000f8020000eff20000e0188000000000079
:10041000000020000000e000020032000001200087
:10042000200288000c00070020442000010020006a
:1004300011000700000020000000e0000200320070
:100440000000020000000000340402000000000070
:100450000040da000000fe004440a9000000200037
:100460000000e0000300320000002000a00188002e
:100470004440a80000000600910188008000780038
:100480000000eb0015003700e280400032a0b4000d
:100490009101ba00e280400032a0b4009102ba009b
:1004a000e280400032a0b4000002eb00472bde00e7
:1004b000f507b200602ce10004003a000059eb009f
:1004c0008301e900fdff3e00040037006128e100e0
:1004d000010032000082eb00040007001101ba00a5
:1004e0000200e000e8ff3a00000006003159ba00bf
:1004f0008301e9000c0032002159ba008301e900b0
:10050000080032000400e00003003a00e2804000ee
:1005100032a0b400f5ff370011d9ba008301e90019
:10052000faff3a008100e800e180400032a0b40008
:0c053000000006000040da000000fe00a1
:020000040000fa
:10053c000000fa00c9e2a900cbe2a9000050230098
:10054c00c1002000b7000700cbe2a8000080fa0031
:10055c00000006000000fa004427ef000001200014
:10056c00401188008080280000118800005128006c
:10057c001011880000202a0020088800f057220063
:10058c00100888008460a9000080fa0000000600b2
:10059c000000fa004427ef0070062000401188008c
:1005ac0000802800001188000051280010118800dc
:1005bc0000202a0020088800f0572200100888002c
:1005cc008460a9000080fa00000006000000fa0018
:1005dc0010c4b3006600070040c5b30064000700f8
:1005ec00b0c2b300620007000080fa0000000600f1
:1005fc000000fa0040c5b3005d00070050c4b30012
:10060c005b00070030c5b3005900070040c5b300bc
:10061c00570007000080fa00000006000000fa00f6
:10062c00eaff070020c4b3005100070010c4b30058
:10063c004f00070050c5b3004d00070040c4b30085
:10064c004b000700f0c3b300490007000080fa001c
:10065c00000006000000fa00dcff070020c4b30015
:10066c004300070010c4b3004100070050c5b3009d
:10067c003f00070040c4b3003d00070080c3b30037
:10068c003b0007000080fa00000006000000fa00a2
:10069c00ceff070060c4b3003500070090c4b30060
:1006ac0033000700c0c4b3003100070040c5b300dd
:1006bc002f000700f0c3b3002d0007000080fa00e4
:1006cc00000006000000fa00c0ff070010c4b300d1
:1006dc002700070040c4b3002500070040c5b30045
:1006ec002300070090c5b30021000700f0c3b3003e
:1006fc001f0007000080fa00000006000000fa004e
:10070c00b2ff070030c5b30019000700c0c4b30026
:10071c001700070050c4b3001500070050c4b30005
:10072c001300070000c5b300110007000080fa0099
:10073c00000006000200fa000000eb00000f780039
:10074c000300370030c4b300090007001e0fe80097
:10075c00200520009e007800808f5000f9ff3400a7
:10076c000040eb00020007000080fa0000000600c9
:10077c000200fa00004f7800000000001111800008
:10078c0000202000008060000000e000fbff3a0029
:10079c001e00fb00201188000080fa0000000600fb
:1007ac000200fa00004f78000000000011118000d8
:1007bc0000202000008060000000e000fbff3a00f9
:1007cc001e80fb00201188000080fa00000006004b
:1007dc000000fa006eff0700d6ff0700001027008c
:1007ec00210020000f0007009aff070000102700cf
:1007fc00210020000b000700c0ff0700001027009d
:10080c00210020000700070052ff0700c9ff070066
:10081c000010270021002000020007000080fa00d1
:04082c0000000600c2
:020000040000fa
:10083000f03fb1000180b10006003500ee03090071
:1008400000000000403fb1000180b100fbff3d000f
:100850001000b000203fb000020035000080090009
:0808600000000000000006008a
:020000040000fa
:100868000000fa00dbff07006dff070000102700fb
:0c08780021002000ecff0700fbff370010
:020000040000fa
:040884000000000070
:020000040000fa
:0200000401f009
:04000000ffff0000fe
:020000040000fa
:0200000401f009
:04000800ffff0000f6
:020000040000fa
:0200000401f009
:04000c0059ff000098
:020000040000fa
:0200000401f009
:04001000bfff00002e
:020000040000fa
:0200000401f009
:0400140050ff000099
:020000040000fa
:0200000401f009
:04001800f7ff0000ee
:020000040000fa
:0200000401f009
:04001c00feff0000e3
:00000001FF
