:020000040000fa
:080000000002040000000000f2
:020000040000fa
:100008009a0200009a0200009a0200009a02000078
:100018009a0200009a0200009a0200009a02000068
:100028009a0200009a0200009a0200009a02000058
:100038009a0200009a0200009a0200009a02000048
:020000040000fa
:020000040000fa
:100400000f8020000eff20000e0188000000000079
:10041000000020000000e000020032000001200087
:10042000200288000c000700804b20000100200003
:1004300011000700000020000000e0000200320070
:100440000000020000000000a40402000000000000
:100450000040da000000fe004440a9000000200037
:100460000000e0000300320000002000a00188002e
:100470004440a80000000600910188008000780038
:100480000000eb0015003700e280400032a0b4000d
:100490009101ba00e280400032a0b4009102ba009b
:1004a000e280400032a0b4000002eb00472bde00e7
:1004b000f507b200602ce10004003a000059eb009f
:1004c0008301e900fdff3e00040037006128e100e0
:1004d000010032000082eb00040007001101ba00a5
:1004e0000200e000e8ff3a00000006003159ba00bf
:1004f0008301e9000c0032002159ba008301e900b0
:10050000080032000400e00003003a00e2804000ee
:1005100032a0b400f5ff370011d9ba008301e90019
:10052000faff3a008100e800e180400032a0b40008
:0c053000000006000040da000000fe00a1
:020000040000fa
:10053c000000fa00c9e2a900cbe2a9000050230098
:10054c00c1002000ef000700cbe2a8000080fa00f9
:10055c00000006000000fa004427ef000001200014
:10056c00401188008080280000118800005128006c
:10057c001011880000202a0020088800f057220063
:10058c00100888008460a9000080fa0000000600b2
:10059c000000fa004427ef0070062000401188008c
:1005ac0000802800001188000051280010118800dc
:1005bc0000202a0020088800f0572200100888002c
:1005cc008460a9000080fa00000006000000fa0018
:1005dc0010c4b3009e00070040c5b3009c00070088
:1005ec00b0c2b3009a0007000080fa0000000600b9
:1005fc000000fa0040c5b3009500070050c4b300da
:10060c009300070030c5b3009100070040c5b3004c
:10061c008f0007000080fa00000006000000fa00be
:10062c00eaff070020c4b3008900070010c4b30020
:10063c008700070050c5b3008500070040c4b30015
:10064c0083000700f0c3b300810007000080fa00ac
:10065c00000006000000fa00dcff070020c4b30015
:10066c007b00070010c4b3007900070050c5b3002d
:10067c007700070040c4b3007500070080c3b300c7
:10068c00730007000080fa00000006000000fa006a
:10069c00ceff070060c4b3006d00070090c4b30028
:1006ac006b000700c0c4b3006900070040c5b3006d
:1006bc0067000700f0c3b300650007000080fa0074
:1006cc00000006000000fa00c0ff070010c4b300d1
:1006dc005f00070040c4b3005d00070060c5b300b5
:1006ec005b00070090c4b30059000700f0c3b300cf
:1006fc00570007000080fa00000006000000fa0016
:10070c00b2ff070010c4b3005100070040c4b3008f
:10071c004f00070060c5b3004d00070090c4b30044
:10072c004b00070090c3b300490007000080fa009b
:10073c00000006000000fa00a4ff070030c5b3005b
:10074c0043000700c0c4b3004100070050c4b3000d
:10075c003f00070050c4b3003d00070000c5b300c4
:10076c003b0007000080fa00000006000000fa00c1
:10077c0096ff070040c5b3003500070090c5b300d5
:10078c003300070000c5b3003100070050c4b300ac
:10079c002f000700f0c3b3002d0007000080fa0003
:1007ac00000006000000fa0088ff070060c5b300d7
:1007bc002700070050c4b3002500070020c5b30074
:1007cc002300070030c5b30021000700f0c3b300bd
:1007dc001f0007000080fa00000006000000fa006d
:1007ec007aff0700d0c4b30019000700f0c4b300af
:1007fc001700070040c4b3001500070050c4b30035
:10080c0013000700f0c3b300110007000080fa00ca
:10081c00000006000200fa000000eb00000f780058
:10082c000300370030c4b300090007001e0fe800b6
:10083c00200520009e007800808f5000f9ff3400c6
:10084c000040eb00020007000080fa0000000600e8
:10085c000200fa00004f7800000000001111800027
:10086c0000202000008060000000e000fbff3a0048
:10087c001e00fb00201188000080fa00000006001a
:10088c000200fa00004f78000000000011118000f7
:10089c0000202000008060000000e000fbff3a0018
:1008ac001e80fb00201188000080fa00000006006a
:1008bc000000fa0036ff0700d6ff070000102700e3
:1008cc00210020000f00070062ff07000010270026
:1008dc00210020000b00070096ff070000102700e6
:1008ec0021002000070007001aff0700c9ff0700be
:1008fc000010270021002000020007000080fa00f1
:04090c0000000600e1
:020000040000fa
:10091000f03fb1000180b10006003500ee03090090
:1009200000000000403fb1000180b100fbff3d002e
:100930001000b000203fb000020035000080090028
:080940000000000000000600a9
:020000040000fa
:100948000000fa00dbff070000502300c100200070
:10095800edff07005cff07000010270021002000c2
:08096800e9ff0700fbff370067
:020000040000fa
:040970000000000083
:020000040000fa
:0200000401f009
:04000000ffff0000fe
:020000040000fa
:0200000401f009
:04000800ffff0000f6
:020000040000fa
:0200000401f009
:04000c0059ff000098
:020000040000fa
:0200000401f009
:04001000bfff00002e
:020000040000fa
:0200000401f009
:0400140050ff000099
:020000040000fa
:0200000401f009
:04001800f7ff0000ee
:020000040000fa
:0200000401f009
:04001c00feff0000e3
:00000001FF
